:100000000C942A000C9447000C9447000C94470071
:100010000C9447000C9447000C9447000C94470044
:100020000C9447000C9447000C9447000C94470034
:100030000C9447000C9447000C9447000C94470024
:100040000C9447000C9447000C9447000C94470014
:100050000C94470011241FBECFE5D4E0DEBFCDBF16
:1000600010E0A0E6B0E0E6EDFBE002C005900D92E6
:10007000A037B107D9F720E0A0E7B0E001C01D929A
:10008000A337B207E1F70E9446010C94E9050C94EE
:1000900000002091720090E0981718F49F5F2BE009
:1000A000FBCF20937200909371000895C29888EC62
:1000B0000E944900C29A88EC0E944900C2980895A3
:1000C000CF93C82F88B3887F88BB8C2F807F88BB55
:1000D0000E945600C295C07FC8BBCF910C945600B9
:1000E000CF93C82F81E088BB18BA8C2F807F8160A6
:1000F00088BB0E945600C295C07FC160C8BBCF912B
:100100000C945600EF92FF920F931F93CF938C01A4
:1001100081E088BB18BAC0E07801EC0EF11CF70151
:1001200080818823B1F0C03119F480EC0E94600016
:10013000F7018081807F816088BB0E945600F701B3
:1001400080818295807F816088BB0E945600CF5F4E
:10015000E3CFCF911F910F91FF90EF900895EF9211
:10016000FF920F931F93CF938C0181E088BB18BA45
:10017000C0E07801EC0EF11CF70180818823B1F01A
:10018000C03119F480EC0E946000F7018081807F0B
:10019000816088BB0E945600F70180818295807F34
:1001A000816088BB0E945600CF5FE3CFCF911F9143
:1001B0000F91FF90EF900895CF93DF93282F64E67F
:1001C0000E949501382F4CE94303C0011124820F8E
:1001D000911D6AE070E00E94A101D62F205DC22F20
:1001E000349FC00D112480E3830F0E94700080E3D0
:1001F0008D0F0E9470008C2F9AE0D99F80191124D6
:10020000DF91CF910C947000811102C080E803C08F
:10021000813021F480EC860F0C94600008950197E2
:1002200038F02CEC3CE0000021503109E1F7F7CF29
:10023000089584E190E00E940F0188B380937000DC
:100240008FEF87BB8FE090E00E940F0180E288BBB8
:1002500081E00E94600082E00E94600080E80E94CD
:10026000600084E190E00C940F0181E00C94600048
:1002700087B98FE39CE90197F1F700C00000369A37
:10028000349BFECF349A84B195B10895CF93DF9318
:10029000CDB7DEB760970FB6F894DEBF0FBECDBF07
:1002A0008FEF87BB1ABA87E886B980E487B90E94C6
:1002B000190118BA8BE683BF12BE1CBE84EAD82E81
:1002C00090E6E92E90E0F92E8E010F5F1F4FD6B811
:1002D00010BE349BFECF349A64B175B180E090E0DB
:1002E0000E94710223E333E343E050E40E94C9011A
:1002F0000E943B027F936F93FF92EF921F930F93A5
:100300000E94FF02C8010E94AF002FEF81EE94E02F
:10031000215080409040E1F700C000000F900F9006
:100320000F900F900F900F90D2CF991B79E004C0DF
:10033000991F961708F0961B881F7A95C9F7809524
:10034000089597FB072E16F4009407D077FD09D087
:100350000E94B50107FC05D03EF4909581959F4F12
:100360000895709561957F4F0895AA1BBB1B51E1BD
:1003700007C0AA1FBB1FA617B70710F0A61BB70B15
:10038000881F991F5A95A9F780959095BC01CD01BA
:1003900008950E94DD010C94C5020E94BE0258F02F
:1003A0000E94B70240F029F45F3F29F00C94AE029E
:1003B00051110C94F9020C94B4020E94D60268F315
:1003C0009923B1F3552391F3951B550BBB27AA270E
:1003D00062177307840738F09F5F5F4F220F331F48
:1003E000441FAA1FA9F335D00E2E3AF0E0E832D010
:1003F00091505040E695001CCAF72BD0FE2F29D013
:10040000660F771F881FBB1F261737074807AB07E4
:10041000B0E809F0BB0B802DBF01FF2793585F4F59
:100420003AF09E3F510578F00C94AE020C94F9021C
:100430005F3FE4F3983ED4F3869577956795B7953B
:10044000F7959F5FC9F7880F911D9695879597F946
:100450000895E1E0660F771F881FBB1F62177307BF
:100460008407BA0720F0621B730B840BBA0BEE1FD4
:1004700088F7E09508950E9442026894B1110C94A7
:10048000F90208950E94DE0288F09F5798F0B92F74
:100490009927B751B0F0E1F0660F771F881F991FB9
:1004A0001AF0BA95C9F714C0B13091F00E94F80261
:1004B000B1E008950C94F802672F782F8827B85F71
:1004C00039F0B93FCCF3869577956795B395D9F711
:1004D0003EF490958095709561957F4F8F4F9F4F1B
:1004E0000895E89409C097FB3EF490958095709527
:1004F00061957F4F8F4F9F4F9923A9F0F92F96E970
:10050000BB279395F695879577956795B795F111E4
:10051000F8CFFAF4BB0F11F460FF1BC06F5F7F4F81
:100520008F4F9F4F16C0882311F096E911C0772393
:1005300021F09EE8872F762F05C0662371F096E89C
:10054000862F70E060E02AF09A95660F771F881F6B
:10055000DAF7880F9695879597F9089597F99F6729
:1005600080E870E060E008959FEF80EC089500243B
:100570000A941616170618060906089500240A9408
:1005800012161306140605060895092E0394000C8E
:1005900011F4882352F0BB0F40F4BF2B11F460FF1D
:1005A00004C06F5F7F4F8F4F9F4F089557FD905846
:1005B000440F551F59F05F3F71F04795880F97FB27
:1005C000991F61F09F3F79F08795089512161306E1
:1005D0001406551FF2CF4695F1DF08C01616170610
:1005E0001806991FF1CF8695710561050894089545
:1005F000E894BB2766277727CB0197F90895AEE0EB
:10060000B0E0E5E0F3E00C94C0050D891E8986E0BA
:100610008C831A8309838FEF9FE79E838D83AE01BE
:10062000475E5F4F6F89788DCE0101960E9421034E
:10063000EF81F885E00FF11F10822E96E4E00C9414
:10064000DC05ABE0B0E0E7E2F3E00C94B2056C014E
:100650007B018A01FC0117821682838181FFCCC154
:10066000CE0101963C01F6019381F70193FD85913E
:1006700093FF81917F01882309F4BAC1853239F44F
:1006800093FD859193FF81917F01853229F4B60115
:1006900090E00E941805E7CF912C212C312CFFE12E
:1006A000F315D8F08B3279F038F4803279F0833258
:1006B000A1F4232D20611DC08D3261F0803369F4D7
:1006C000232D216016C0832D8260382EE32DE46037
:1006D0003E2E2AC0F32DF8601DC037FC2DC020ED42
:1006E000280F2A3040F08E32B9F436FC81C1232D18
:1006F0002064322E19C036FE06C08AE0989E200D76
:100700001124922E11C0EAE02E9E200D1124222EDB
:10071000F32DF0623F2E08C08C3621F4832D8068C3
:10072000382E02C0883641F4F70193FD859193FF7E
:1007300081917F018111B3CF982F9F7D9554933084
:1007400028F40C5F1F4F9FE399830DC0833631F06F
:10075000833771F0833509F059C021C0F8018081D9
:1007600089830E5F1F4F88248394912C530113C0FB
:100770002801F2E04F0E511CF801A080B18036FE36
:1007800003C0692D70E002C06FEF7FEFC5010E94CA
:100790000D054C018201F32DFF773F2E16C0280175
:1007A00022E0420E511CF801A080B18036FE03C049
:1007B000692D70E002C06FEF7FEFC5010E94020556
:1007C0004C01F32DF0683F2E820133FC1BC0822DBB
:1007D00090E088169906B0F4B60180E290E00E949D
:1007E00018052A94F4CFF50137FC859137FE8191E5
:1007F0005F01B60190E00E94180521102A9421E0C3
:10080000821A91088114910471F7E8C0843611F0BE
:10081000893641F5F80137FE07C060817181828118
:1008200093810C5F1F4F08C060817181072E000CFF
:10083000880B990B0E5F1F4FF32DFF763F2E97FF0E
:1008400009C090958095709561957F4F8F4F9F4F10
:10085000F0683F2E2AE030E0A3010E945405882E64
:10086000861845C0853731F4232D2F7EB22E2AE01D
:1008700030E025C0932D997FB92E8F36C1F018F442
:10088000883579F0B5C0803719F0883721F0B0C0CD
:10089000E92FE061BE2EB4FE0DC0FB2DF460BF2E2B
:1008A00009C034FE0AC0292F2660B22E06C028E0F7
:1008B00030E005C020E130E002C020E132E0F80184
:1008C000B7FE07C060817181828193810C5F1F4FE9
:1008D00006C06081718180E090E00E5F1F4FA30130
:1008E0000E945405882E8618FB2DFF773F2E36FE7A
:1008F0000DC0232D2E7FA22E891458F434FE0BC078
:1009000032FC09C0832D8E7EA82E05C0B82CA32CE6
:1009100003C0B82C01C0B92CA4FE0FC0FE01E80D25
:10092000F11D8081803321F49A2D997EA92E09C072
:10093000A2FE06C0B394B39404C08A2D867809F051
:10094000B394A3FC11C0A0FE06C0B21488F4280C16
:10095000922C9B180EC0B21460F4B60180E290E0B5
:100960000E941805B394F7CFB21418F42B1802C0E4
:10097000982C212CA4FE10C0B60180E390E00E94C8
:100980001805A2FE17C0A1FC03C088E790E002C0D2
:1009900088E590E0B6010CC08A2D867859F0A1FE5A
:1009A00002C08BE201C080E2A7FC8DE2B60190E0BC
:1009B0000E941805891438F4B60180E390E00E9483
:1009C00018059A94F7CF8A94F301E80DF11D808100
:1009D000B60190E00E9418058110F5CF222009F49D
:1009E00042CEB60180E290E00E9418052A94F6CF2C
:1009F000F6018681978102C08FEF9FEF2B96E2E18F
:100A00000C94CE05FC010590615070400110D8F7A0
:100A1000809590958E0F9F1F0895FC016150704046
:100A200001900110D8F7809590958E0F9F1F089523
:100A30000F931F93CF93DF93FB01238121FD03C00D
:100A40008FEF9FEF2CC022FF16C046815781248173
:100A500035814217530744F4A081B1819D012F5F76
:100A60003F4F318320838C93268137812F5F3F4F07
:100A70003783268314C08B01EC01FB010084F185D0
:100A8000E02D0995892BE1F6D80116968D919C9160
:100A90001797019617969C938E931697CE01DF9128
:100AA000CF911F910F910895FA01AA27283051F193
:100AB000203181F1E8946F936E7F6E5F7F4F8F4F8F
:100AC0009F4FAF4FB1E03ED0B4E03CD0670F781FEE
:100AD000891F9A1FA11D680F791F8A1F911DA11DD3
:100AE0006A0F711D811D911DA11D20D009F468940C
:100AF0003F912AE0269F11243019305D3193DEF6B4
:100B0000CF010895462F4770405D4193B3E00FD069
:100B1000C9F7F6CF462F4F70405D4A3318F0495D54
:100B200031FD4052419302D0A9F7EACFB4E0A69537
:100B30009795879577956795BA95C9F70097610559
:100B4000710508959B01AC010A2E069457954795AF
:100B500037952795BA95C9F7620F731F841F951FA4
:100B6000A01D08952F923F924F925F926F927F92B5
:100B70008F929F92AF92BF92CF92DF92EF92FF92AD
:100B80000F931F93CF93DF93CDB7DEB7CA1BDB0B59
:100B90000FB6F894DEBF0FBECDBF09942A883988FE
:100BA00048885F846E847D848C849B84AA84B98405
:100BB000C884DF80EE80FD800C811B81AA81B98111
:100BC000CE0FD11D0FB6F894DEBF0FBECDBFED0125
:060BD0000895F894FFCF28
:100BD60074656D70206973203D20256420430000F4
:00000001FF
