:100000000C942A000C9434000C9434000C943400AA
:100010000C9434000C9434000C9434000C94340090
:100020000C9434000C9434000C9434000C94340080
:100030000C9434000C9434000C9434000C94340070
:100040000C9434000C9434000C9434000C94340060
:100050000C94340011241FBECFE5D4E0DEBFCDBF29
:100060000E9436000C946D010C94000080E8F82E7C
:1000700090EC20E430E640E250E360E178E1E8E033
:10008000FCE0A4E0B6E0C2E0D3E0EE24E394C89B39
:10009000FECFF8BA0FE916E881E001501040804029
:1000A000E1F700C0000098BB0FE916E881E00150BD
:1000B00010408040E1F700C0000028BB0FE916E8BF
:1000C00081E0015010408040E1F700C0000038BBE3
:1000D0000FE916E881E0015010408040E1F700C0D0
:1000E000000048BB0FE916E881E001501040804055
:1000F000E1F700C0000058BB0FE916E881E00150AD
:1001000010408040E1F700C0000068BB0FE916E82E
:1001100081E0015010408040E1F700C0000078BB52
:100120000FE916E881E0015010408040E1F700C07F
:100130000000E8BB0FE916E881E001501040804064
:10014000E1F700C00000F8BB0FE916E881E00150BC
:1001500010408040E1F700C00000A8BB0FE916E89E
:1001600081E0015010408040E1F700C00000B8BBC2
:100170000FE916E881E0015010408040E1F700C02F
:100180000000C8BB0FE916E881E001501040804034
:10019000E1F700C00000D8BB0FE916E881E001508C
:1001A00010408040E1F700C00000E8BA0FE916E80F
:1001B00081E0015010408040E1F700C00000D8BB52
:1001C0000FE916E881E0015010408040E1F700C0DF
:1001D0000000C8BB0FE916E881E0015010408040E4
:1001E000E1F700C00000B8BB0FE916E881E001505C
:1001F00010408040E1F700C00000A8BB0FE916E8FE
:1002000081E0015010408040E1F700C00000F8BBE1
:100210000FE916E881E0015010408040E1F700C08E
:100220000000E8BB0FE916E881E001501040804073
:10023000E1F700C0000078BB0FE916E881E001504B
:1002400010408040E1F700C0000068BB0FE916E8ED
:1002500081E0015010408040E1F700C0000058BB31
:100260000FE916E881E0015010408040E1F700C03E
:10027000000048BB0FE916E881E0015010408040C3
:10028000E1F700C0000038BB0FE916E881E001503B
:1002900010408040E1F700C0000028BB0FE916E8DD
:1002A00081E0015010408040E1F700C0000098BBA1
:1002B0000FE916E881E0015010408040E1F700C0EE
:1002C0000000F8BA0FE916E881E0015010408040C4
:0E02D000E1F700C0000018BADACEF894FFCFB4
:00000001FF
