:100000000C942A000C9434000C9434000C943400AA
:100010000C9434000C9434000C9434000C94340090
:100020000C9434000C9434000C9434000C94340080
:100030000C9434000C9434000C9434000C94340070
:100040000C9434000C9434000C9434000C94340060
:100050000C94340011241FBECFE5D4E0DEBFCDBF29
:100060000E9436000C946C010C94000080E8F82E7D
:1000700090EC20E430E640E250E360E178E1E8E033
:10008000FCE0A4E0B6E0C2E0D3E0EE24E394C89B39
:10009000FECFF8BA0FEF10E782E001501040804029
:1000A000E1F700C0000098BB0FEF10E782E00150BD
:1000B00010408040E1F700C0000028BB0FEF10E7C0
:1000C00082E0015010408040E1F700C0000038BBE2
:1000D0000FEF10E782E0015010408040E1F700C0D0
:1000E000000048BB0FEF10E782E001501040804055
:1000F000E1F700C0000058BB0FEF10E782E00150AD
:1001000010408040E1F700C0000068BB0FEF10E72F
:1001100082E0015010408040E1F700C0000078BB51
:100120000FEF10E782E0015010408040E1F700C07F
:100130000000E8BB0FEF10E782E001501040804064
:10014000E1F700C00000F8BB0FEF10E782E00150BC
:1001500010408040E1F700C00000A8BB0FEF10E79F
:1001600082E0015010408040E1F700C00000B8BBC1
:100170000FEF10E782E0015010408040E1F700C02F
:100180000000C8BB0FEF10E782E001501040804034
:10019000E1F700C00000D8BB0FEF10E782E001508C
:1001A00010408040E1F700C00000E8BA0FEF10E710
:1001B00082E0015010408040E1F700C00000D8BB51
:1001C0000FEF10E782E0015010408040E1F700C0DF
:1001D0000000C8BB0FEF10E782E0015010408040E4
:1001E000E1F700C00000B8BB0FEF10E782E001505C
:1001F00010408040E1F700C00000A8BB0FEF10E7FF
:1002000082E0015010408040E1F700C00000F8BBE0
:100210000FEF10E782E0015010408040E1F700C08E
:100220000000E8BB0FEF10E782E001501040804073
:10023000E1F700C0000078BB0FEF10E782E001504B
:1002400010408040E1F700C0000068BB0FEF10E7EE
:1002500082E0015010408040E1F700C0000058BB30
:100260000FEF10E782E0015010408040E1F700C03E
:10027000000048BB0FEF10E782E0015010408040C3
:10028000E1F700C0000038BB0FEF10E782E001503B
:1002900010408040E1F700C0000028BB0FEF10E7DE
:1002A00082E0015010408040E1F700C0000098BBA0
:1002B0000FEF10E782E0015010408040E1F700C0EE
:1002C0000000F8BA0FEF10E782E0015010408040C4
:0C02D000E1F700C00000DBCEF894FFCF87
:00000001FF
