:0C0000000C945F000C9400000C940000B5
:10000C000C9400000C9400000C9400000C94000064
:10001C000C9400000C9400000C9400000C94000054
:10002C000C9400000C9400000C9400000C94000044
:10003C000C9400000C9400000C9400000C94000034
:10004C000C9400000C94000053544F50004C454647
:10005C0054004C4546543A200052494748543A20E3
:10006C0000464F5257415244005245564552534553
:10007C003A2000524947485400464F4C4C4F574980
:10008C004E4720524F424F540048454C4C4F0000B5
:10009C0080C001002D4E414E00494E460000050027
:1000AC0060015400020085019C00010089019E0042
:1000BC000000F894EE27ECBBF1E0FBBFEBBFE5BF13
:1000CC008DE0A2E0BB27ED938A95E9F780E094E000
:1000DC00A0E6ED930197E9F7EAEAF0E085919591B6
:1000EC00009761F0A591B59105901590BF01F001B5
:1000FC0005900D920197E1F7FB01F0CFEFE5EDBF15
:10010C00E4E0EEBFC0E6D1E00C94E300E0E0E2BB3B
:10011C001CD1A0E6B1E03AD1E0E0F0E0FBBDEABDD5
:10012C00F9BDE8BD08950E944902A9E5B0E03DD1B2
:10013C00E3E00E9452020E945602E3E00E94660233
:10014C000E946A02E9E02EC00E944902ADE6B0E0CE
:10015C000E947A02A5E7B0E028D1E881F981FA93F0
:10016C00EA93A5E6B1E00E941B02E0E00E94660261
:10017C00A5E6B1E00BD1EAE0E2BBE881F981FBBD79
:10018C00EABD0E947E02DFC00E944902AFE7B0E0E8
:10019C000E947A020E945602E0E00E9466020E94CF
:1001AC006A02E6E0E2BBE881F981FBBDEABDEA81C7
:1001BC00FB810E947E0224960895E0E0EBBBEFE009
:1001CC00EABBE0E0E2BBEFE0E1BBE3EAEFBDE3E07A
:1001DC00EEBDE0E0EDBDECBDEBBDEABDE7BDE6BDBF
:1001EC00E9BDE8BDE9BFE8BFA4E1F2D0E0E00E94C0
:1001FC005202E0E0EA93A0E09BD0A5E8B0E00E94B8
:10020C007A02A0E2B3E00E949C029FD0E0E0EA9365
:10021C00A0E08ED0A5E9B0E00E947A02A0E2B3E0A3
:10022C000E949C02EFE15E2EE3B35E22552009F49E
:10023C006DDFE4E0E51519F4A2E3B0E085DFEEE054
:10024C00E51519F4A2E3B0E07FDFE0E1E51529F450
:10025C000E948402A2E3B0E066DFE8E1E51529F430
:10026C000E948402A8E2B0E05EDFE8E0E51529F424
:10027C000E948402AEE1B0E056DFECE0E51529F413
:10028C000E948402A9E1B0E04EDFECE1E51529F40F
:10029C000E948402AEE1B0E046DFE1E0E51521F416
:1002AC00E2E3F0E00E948902E3E0E51521F4E8E2E4
:1002BC00F0E00E948902E7E0E51521F4EEE1F0E0C0
:1002CC000E948902E6E0E51539F4E9E1F0E0FA93E1
:1002DC00EA93A8E2B0E058DFE2E0E51539F4EAE58C
:1002EC00F0E0FA93EA93AAE5B0E04EDF9BCFFFCFA4
:1002FC00AA93EBB3EF70AE2FE881E07FEA2BEBBB58
:10030C0082E08A95F1F7DA9A82E08A95F1F7DA9829
:10031C0082E08A95F1F787C0AA93A881E9DFE8818A
:10032C00E295E883A881E4DF81E18A95F1F77BC04F
:10033C00AA93E881F0E0EB57FE4FE081A981AE0F64
:10034C00EBDF4980788022960895A2E00E948F020C
:10035C00ACE0E2DFA1E00E948F02E0E07E2E4E2EA8
:10036C000895AA93A881AA3011F0461448F0E0E051
:10037C00EA937394A72DDCDFA881AA3009F453C04B
:10038C004394D89AA881C8DFD8984DC0BA93AA9341
:10039C001A93A981BA81ED91A983BA831E2FE030FB
:1003AC0019F0A12FDEDFF5CF10C0BA93AA931A93E0
:1003BC00E981FA813196E983FA833197E4911E2F12
:1003CC00E03019F0A12FCDDFF3CF188123960895DB
:1003DC00AA93EAB3E06FEABBD29AD09AD19ADA9890
:1003EC00D898D9986880E881E058E0938701E88133
:1003FC00E054E0938801A4E1B0E00E949C020E94CA
:10040C0095020E9495020E949502A0E271DF81E2A2
:10041C008A95F1F7A8E280DFA4E07EDFA5E87CDF17
:10042C00A6E07ADF92DF21960895BA93AA93A99158
:10043C00B991E991F99130962AF4E095F0953196BD
:10044C006DE26D93E89480E197E20DD088EE93E035
:10045C000AD084E6992707D08AE005D06E2F10D0F9
:10046C0066276C9308956627E817F90720F06395C3
:10047C00E81BF90BC9F7662311F416F0089568947C
:10048C00605D6D930895BA93AA930E94AB01E0E06E
:10049C00EA93A0E00C949E01EA93A1E00C949E01D7
:1004AC00AEE5B0E00E94DB01EA81FB81FA93EA93AE
:1004BC00A5E6B1E00E941B02A5E6B1E00C94CC01CC
:1004CC00EA93A2E00C949E01A5E6B0E00E94DB0149
:1004DC00E881F981FA93EA93A5E6B1E00E941B0248
:1004EC00A5E6B1E00C94CC010E94DB01E0E0D4CF96
:1004FC00F9BDE8BDA4EFB1E00C949C02E4E1F0E09E
:10050C00FA93EA930895FA93EA93A4E1B0E00C9479
:10051C00CA000E949201A3E0B0E00C949C02A0E3FC
:10052C000E947E0181E28A95F1F70895109639F0C8
:10053C008AEF90E00197F1F7A8951197C9F7089504
:00000001FF
