:100000000C942A000C9447000C9447000C94470071
:100010000C9447000C9447000C9447000C94470044
:100020000C9447000C9447000C9447000C94470034
:100030000C9447000C9447000C9447000C94470024
:100040000C9447000C9447000C9447000C94470014
:100050000C94470011241FBECFE5D4E0DEBFCDBF16
:1000600010E0A0E6B0E0E0EFF0E002C005900D92F5
:10007000A437B107D9F720E0A4E7B0E001C01D9292
:10008000A637B207E1F70E9449000C9476000C9461
:1000900000002FEF21BB89B3813029F51092750044
:1000A0001092740080917400909175008A309105CF
:1000B0008CF7880F991FFC01E05AFF4F808182BBAB
:1000C0003FEF81EE94E0315080409040E1F700C076
:1000D00000008091740090917500019690937500D6
:1000E00080937400DFCF80E090E00895F894FFCF14
:1000F000C000F900A400B000990092000201F800CD
:0401000080009000EB
:00000001FF
