:080000000C944A000C9400006E
:100008000C9400000C9400000C9400000C94000068
:100018000C9400000C9400000C9477000C940000E1
:100028000C9400000C9400000C9400000C94000048
:100038000C9400000C9400000C9400000C94000038
:100048000C9400000C9400000C9400001027E803A6
:1000580064000A00010000100001100001001E00E9
:100068000000140000000A000000253032643A2520
:100078003032643A253032640A20414C41524D3ABC
:10008800000080C0020088018A000000F894EE2772
:10009800ECBBF1E0FBBFEBBFE5BF8DE0A2E0BB2707
:1000A800ED938A95E9F780E094E0A0E6ED93019757
:1000B800E9F7ECE8F0E085919591009761F0A5915A
:1000C800B59105901590BF01F00105900D9201972B
:1000D800E1F7FB01F0CFEFE5EDBFE4E0EEBFC0E6EE
:1000E800D1E00C94E1006A937A93AA93BA93EA93C5
:1000F800FA93EFB7EA93EBE0EDBDECEDECBDA0E6CB
:10010800B1E00E94DF03EF5FFF4F6F4F7F4F0E9408
:10011800E403E991EFBFF991E991B991A991799136
:10012800699118952C978CE0A0E0B0E0E6E6F0E045
:100138000E9405040E944B030E94D7030E94ED030E
:100148000E944B030E94B203EC83FD836E837F837E
:100158000E9458030E94B203E887F9876A877B8761
:100168000E9458030E94D703EC83FD836E837F832C
:1001780058844C8078802C960895D4DFA0E10E94A2
:1001880005030E94D302E4E6F1E0FA93EA93E2E77A
:10019800F0E0FA93EA93E52D0E946103E42D0E94B2
:1001A8006103E72D0E9461038CE00E947202609651
:1001B800A4E6B1E00E94F4020895E0E0EBBBE1E0C0
:1001C800EABBE0E0EFBDE3E0EEBDEBE0EDBDECED5A
:1001D800ECBDE0E0E7BDE6BDEBBDEABDE9BDE8BDCD
:1001E800E4E0E9BF7894C9DFA4EFB1E00E94A0037E
:1001F800FACFFFCFBA93AA931A930A93AA81BB8125
:1002080012960E94DB03309759F1AA81BB8114969C
:100218000E94DB038F01309761F00230E0E01E0797
:1002280098F0F80131978F01AA81BB811496ED935C
:10023800FC93AA81BB811296ED91FD913196FE93B4
:10024800EE933197AC81A083AA81BB810E94DB0326
:10025800FF232AF0ED91FD913196FE93EE9306C0AF
:10026800AA81BB81EFEFFFEFED93FC931981088121
:1002780025960895BA93AA9326970E94F70310E04B
:10028800AC85BD85E0E0F0E0ED93FC93EA89FB895D
:100298003196EA8BFB8B3197E4912E2FE03009F4ED
:1002A80015C1E12FE03039F4253211F411E002C014
:1002B8000E9467030AC1E130A9F4253219F40E94AB
:1002C800670302C112E040E000E02D3211F401E0C2
:1002D800FCC02B3211F44BE2F8C0203211F440E29A
:1002E800F4C002C0E23039F450E013E0203311F4D6
:1002F8000068EBC003C0E33009F0E7C0203310F01A
:100308002A3308F007C0AAE05A9F502DE22FE05385
:100318005E0FDBC0E22FE33649F40E946E03E889E2
:10032800F989A481AA930E947403CEC0E33741F4EB
:100338000E946E030E947A030E9432031E2F0AC095
:10034800E03761F40E946E030E947A030E943E0324
:100358001E2F086002600F7730E034C0E43611F0D9
:10036800E93611F4046002C0E53731F4E4E5F0E061
:10037800EE83FF8315E00CC0E83511F4086003C074
:10038800E83709F0A1C0EEE5F0E0EE83FF8314E062
:1003980002FF14C00E946E030E948403AB85AA2347
:1003A8003AF4EA85FB850E94AE03EA87FB874DE2B3
:1003B800403011F01F5F01C00B7F04C00E946E0324
:1003C8000E94840300FD11C0151778F407FF08C0C8
:1003D80002FF04C00B7F242F115001C020E301C08D
:1003E80020E20E9467035150EFCF312F01FF17C061
:1003F8003030A1F003FF06C0EE81FF812591EE8326
:10040800FF8305C0AE81BF812D91AE83BF830E945B
:100418006703503009F051503150EACF4BC020E308
:10042800EE81FF810E94E903E887F987EE81FF8169
:100438003296EE83FF83E885F985AA85BB85AE17DA
:10044800BF0750F02F5FA885B985EA85FB85EA1BB1
:10045800FB0BEA87FB87EFCF2A3328F003FF02C0A4
:10046800295F01C0295D04FD1AC0213320F4A88545
:10047800B985119709F409C0531710F000FF01C09E
:1004880013C020E207FF0BC020E3006102FF07C092
:100498000B7F4A930E947403503009F051500E9418
:1004A8006703503009F051503150A885B98512972B
:1004B80008F0B5CF00FF08C0503031F05150E0E2ED
:1004C800EA930E947403F8CF10E0E0CEAC85BD85B6
:1004D8000E94DB030E94FE0364960895FF92F82EA3
:1004E80026970E94F9030E948C03309719F4EFEFC6
:1004F800FFEF23C0DE0116960E94AA038D010E9419
:100508008C03EE83FF83E0E0E887E987DE011A9633
:100518000E94AA030E94DB03FA93EA931A930A93B0
:10052800EEEFF0E0FA93EA93DE011A96A3DE9F015C
:10053800AE81BF81E0E0EC93F9010E9400042A96A5
:10054800FF900895AA93EBB3EF70AE2FE881E07F98
:10055800EA2BEBBB82E08A95F1F7DA9A82E08A957A
:10056800F1F7DA9882E08A95F1F776C0AA93A88124
:10057800E9DFE881E295E883A881E4DF81E18A95F3
:10058800F1F76AC0AA93E881F0E0E857FE4FE081EE
:10059800A981AE0FEBDF6980988022960895A2E0CA
:1005A8000E949303ACE0E2DFA1E00E949303E0E045
:1005B8009E2E6E2E0895AA93A881AA3011F0681471
:1005C80048F0E0E0EA939394A92DDCDFA881AA30F3
:1005D80009F442C06394D89AA881C8DFD8983CC06F
:1005E800BA93AA931A93A981BA81ED91A983BA8380
:1005F8001E2FE03019F0A12FDEDFF5CF18812396EA
:100608000895AA93EAB3E06FEABBD29AD09AD19A36
:10061800DA98D898D9988880E881E058E0938A01D8
:10062800E881E054E0938B01A4E1B0E00E94A003CC
:100638000E9499030E9499030E949903A0E282DF15
:1006480081E28A95F1F7A8E291DFA4E08FDFA5E8BF
:100658008DDFA6E08BDFA3DF21960895BA93AA93D6
:10066800A991B991EE27FF276D91662311F0319674
:10067800FBCF0895BA93AA93AA27BB27E991F991CA
:100688000590002011F01196FBCFFD010895A0916F
:100698006001B09161018091620190916301ECE386
:1006A800F0E060E070E00895AC81BD818E819F81AB
:1006B800ECE3F0E060E070E00895FF276627772715
:1006C8000E94F20308952A93AD85BE85EF85F889C7
:1006D80009950895E889F9893497E88BF98B089585
:1006E800AD85BE85EF85F88909950895A889B989EA
:1006F80014960E94DB03EE83FF83AE81BF810895C9
:10070800A889B98914960E94DB03EA87FB870895B4
:10071800DE011C960E94AA030E94DB0308950E9432
:10072800BA02A3E0B0E00C94A003A0E30E94A602E2
:1007380081E28A95F1F70895109639F08AEF90E0F2
:100748000197F1F7A8951197C9F708950024AF0DFF
:10075800B01D0895F195E195F04008953F934F93AA
:100768005F93002411244427552730E2AA0FBB1FAA
:10077800881F991F001C111C441F551F0E1A1F0AA1
:10078800460B570B28F40E0E1F1E461F571F01C09D
:10079800A1603A9559F7FD01BC01D001CA015F91EA
:1007A8004F913F910895DADFFD01BC010895ED9165
:1007B800FC9111970895ED91FD916D917D910895AA
:1007C8007E936E93FE93EE9308950590F491E02D39
:1007D8000895E883F9836A837B8308957A936A93FB
:1007E800FA93EA9308955A934A933A932A931A9359
:1007F8000A9308955D814C813B812A811981088182
:100808000895AC0FBD1F05900D928A95E1F70895E4
:00000001FF
