:0A0000000C9461000C9400000C94B5
:10000A0000000C9400000C9400000C9400000C9466
:10001A0000000C9400000C9400000C9400000C9456
:10002A0000000C9400000C9400000C9400000C9446
:10003A0000000C9400000C9400000C9400000C9436
:10004A0000000C9400000C9400001027E8036400E0
:10005A000A0001000010000110000100456E7465DD
:10006A0072206964203A20006E756D626572203ACA
:10007A00256420006E6F7420657869737400656E5C
:10008A007465722070617373776F7264203A290005
:10009A00706173732069732066616C736500737590
:1000AA00636365737366756C6C203A29000080C0BF
:1000BA0002006001B8000000F894EE27ECBBF1E002
:1000CA00FBBFEBBFE5BF8DE0A2E0BB27ED938A95AE
:1000DA00E9F780E094E0A0E6ED930197E9F7EAEB0F
:1000EA00F0E085919591009761F0A591B591059001
:1000FA001590BF01F00105900D920197E1F7FB0100
:10010A00F0CFEFE5EDBFE4E0EEBFC0E6D1E00C943E
:10011A00D700E0E0E7BBEFE0E8BBE0E2E7BBB0997D
:10012A0003C0E9E0F0E00895B19903C0E6E0F0E029
:10013A000895B29903C0E3E0F0E00895B39903C0CB
:10014A00EBE0F0E00895E0E4E7BBB09903C0E8E033
:10015A00F0E00895B19903C0E5E0F0E00895B2999E
:10016A0003C0E2E0F0E00895B39903C0E0E0F0E0F4
:10017A000895E0E8E7BBB09903C0E7E0F0E008952E
:10018A00B19903C0E4E0F0E00895B29903C0E1E058
:10019A00F0E00895B39903C0EAE0F0E00895EFEFC4
:1001AA00F0E008956097A0E1AFD06BD0A6E6B0E08A
:1001BA0098D00E9477030E947C030E9482033CF439
:1001CA000E948903AEE7B0E08CD0E0E8E2BBEAE047
:1001DA00F0E0E017F10731F5E1E0E2BBE0E0EA9395
:1001EA00A0E042D0DE016ED00E947703A8E8B0E01A
:1001FA0078D00E947C030E9482039CF40E948903A7
:10020A00AAE9B0E06ED0E0E8E2BBEAE0F0E0E0178D
:10021A00F10739F40E947703A8EAB0E062D0E1E07E
:10022A00E2BBE9CFCACFFFCFAA93EBB3EF70AE2FF1
:10023A00E881E07FEA2BEBBB82E08A95F1F7DA9A54
:10024A0082E08A95F1F7DA9882E08A95F1F787C019
:10025A00AA93A881E9DFE881E295E883A881E4DF2F
:10026A0081E18A95F1F77BC0AA93E881F0E0E05A30
:10027A00FE4FE081A981AE0FEBDF9980888022963C
:10028A000895A2E00E94A203ACE0E2DFA1E00E948E
:10029A00A203E0E08E2E9E2E0895AA93A881AA308A
:1002AA0011F09B1448F0E0E0EA938394A82DDCDF78
:1002BA00A881AA3009F453C09394D89AA881C8DFB8
:1002CA00D8984DC0BA93AA931A93A981BA81ED918D
:1002DA00A983BA831E2FE03019F0A12FDEDFF5CFF4
:1002EA0010C0BA93AA931A93E981FA813196E983E5
:1002FA00FA833197E4911E2FE03019F0A12FCDDF58
:10030A00F3CF188123960895AA93EAB3E06FEABB64
:10031A00D29AD09AD19ADA98D898D998B880E8819E
:10032A00E058E0936201E881E054E0936301A4E1BC
:10033A00B0E00E94DB030E94A8030E94A8030E9467
:10034A00A803A0E271DF81E28A95F1F7A8E280DFD3
:10035A00A4E07EDFA5E87CDFA6E07ADF92DF2196C3
:10036A000895BA93AA931A930A93AA81BB81129603
:10037A000E94F203309759F1AA81BB8114960E9418
:10038A00F2038F01309761F00230E0E01E0798F027
:10039A00F80131978F01AA81BB811496ED93FC93E2
:1003AA00AA81BB811296ED91FD913196FE93EE934F
:1003BA003197AC81A083AA81BB810E94F203FF23FB
:1003CA002AF0ED91FD913196FE93EE9306C0AA8133
:1003DA00BB81EFEFFFEFED93FC931981088125961E
:1003EA000895BA93AA9326970E94FF0310E0AC855A
:1003FA00BD85E0E0F0E0ED93FC93EA89FB89319654
:10040A00EA8BFB8B3197E4912E2FE03009F415C16A
:10041A00E12FE03039F4253211F411E002C00E94D4
:10042A00AF030AC1E130A9F4253219F40E94AF03DF
:10043A0002C112E040E000E02D3211F401E0FCC0FC
:10044A002B3211F44BE2F8C0203211F440E2F4C02E
:10045A0002C0E23039F450E013E0203311F40068AE
:10046A00EBC003C0E33009F0E7C0203310F02A33B1
:10047A0008F007C0AAE05A9F502DE22FE0535E0F02
:10048A00DBC0E22FE33649F40E94B603E889F98912
:10049A00A481AA930E94BC03CEC0E33741F40E9410
:1004AA00B6030E94C2030E945E031E2F0AC0E037F1
:1004BA0061F40E94B6030E94C2030E946A031E2FBF
:1004CA00086002600F7730E034C0E43611F0E93694
:1004DA0011F4046002C0E53731F4E4E5F0E0EE839C
:1004EA00FF8315E00CC0E83511F4086003C0E83753
:1004FA0009F0A1C0EEE5F0E0EE83FF8314E002FF0D
:10050A0014C00E94B6030E94CC03AB85AA233AF416
:10051A00EA85FB850E94E903EA87FB874DE24030C2
:10052A0011F01F5F01C00B7F04C00E94B6030E9436
:10053A00CC0300FD11C0151778F407FF08C002FFAD
:10054A0004C00B7F242F115001C020E301C020E218
:10055A000E94AF035150EFCF312F01FF17C0303047
:10056A00A1F003FF06C0EE81FF812591EE83FF8390
:10057A0005C0AE81BF812D91AE83BF830E94AF03B8
:10058A00503009F051503150EACF4BC020E3EE8190
:10059A00FF810E94F603E887F987EE81FF81329690
:1005AA00EE83FF83E885F985AA85BB85AE17BF0769
:1005BA0050F02F5FA885B985EA85FB85EA1BFB0BFE
:1005CA00EA87FB87EFCF2A3328F003FF02C0295FAF
:1005DA0001C0295D04FD1AC0213320F4A885B9851C
:1005EA00119709F409C0531710F000FF01C013C096
:1005FA0020E207FF0BC020E3006102FF07C00B7F68
:10060A004A930E94BC03503009F051500E94AF0334
:10061A00503009F051503150A885B985129708F029
:10062A00B5CF00FF08C0503031F05150E0E2EA93F4
:10063A000E94BC03F8CF10E0E0CEAC85BD850E94D5
:10064A00F2030E94060464960895FF92F82E2697F4
:10065A000E9401040E94D403309719F4EFEFFFEFD0
:10066A0023C0DE0116960E94E5038D010E94D40381
:10067A00EE83FF83E0E0E887E987DE011A960E94AD
:10068A00E5030E94F203FA93EA931A930A93E6EBBC
:10069A00F1E0FA93EA93DE011A96A3DE9F01AE8196
:1006AA00BF81E0E0EC93F9010E9408042A96FF90CA
:1006BA000895BA93AA93A991B991EE27FF276D914C
:1006CA00662311F03196FBCF0895BA93AA93AA270D
:1006DA00BB27E991F9910590002011F01196FBCF03
:1006EA00FD010895E0E0EA93A1E00C943901A8EE37
:1006FA00B3E00E94DB030C9446010E948E008F0136
:10070A000F3FE0E01E070895FE01FA93EA93E2E73D
:10071A00F0E0FA93EA93F8010E94ED030E94FA03CB
:10072A0084E00E942A032896E0E0EA93A0E00E946F
:10073A003901DE010E946701D5CF0E942D01A3E095
:10074A00B0E00C94DB03A0E30E94190181E28A95D0
:10075A00F1F708952A93AD85BE85EF85F889099545
:10076A000895E889F9893497E88BF98B0895AD855E
:10077A00BE85EF85F88909950895A889B9891496DF
:10078A000E94F203EE83FF83AE81BF810895A88998
:10079A00B98914960E94F203EA87FB870895DE015D
:1007AA001C960E94E5030E94F2030895109639F000
:1007BA008AEF90E00197F1F7A8951197C9F7089584
:1007CA000024AF0DB01D0895F195E195F04008950C
:1007DA006F2F660F660B762F0895ED91FC91119796
:1007EA0008950590F491E02D08957A936A93FA9307
:1007FA00EA9308955A934A933A932A931A930A9337
:10080A0008955D814C813B812A811981088108956F
:00000001FF
