:100000000C942A000C9434000C9434000C943400AA
:100010000C9434000C9434000C9434000C94340090
:100020000C9434000C9434000C9434000C94340080
:100030000C9434000C9434000C9434000C94340070
:100040000C9434000C9434000C9434000C94340060
:100050000C94340011241FBECFE5D4E0DEBFCDBF29
:100060000E9436000C9471000C9400008FE08ABB53
:1000700081E08BBB2FEF30E792E021503040904081
:10008000E1F700C0000094E09BBB2FEF30E792E067
:10009000215030409040E1F700C0000092E09BBB4F
:1000A0002FEF30E792E0215030409040E1F700C060
:1000B000000098E09BBB2FEF30E792E021503040EA
:1000C0009040E1F700C000008BBB2FEF30E782E0EB
:1000D000215030408040E1F700C0000080E090E017
:0600E0000895F894FFCF23
:00000001FF
