:100000000C942A000C9447000C9447000C94470071
:100010000C9447000C9447000C9447000C94470044
:100020000C9447000C9449000C9447000C94470032
:100030000C9447000C9447000C9447000C94470024
:100040000C9447000C9447000C9447000C94470014
:100050000C94470011241FBECFE5D4E0DEBFCDBF16
:1000600010E0A0E6B0E0EAE0F1E002C005900D92F9
:10007000AA36B107D9F720E0AAE6B0E001C01D9288
:10008000AC36B207E1F70E9476000C9483000C9422
:1000900000001F920F920FB60F9211248F939F931F
:1000A000EF93FF9380916A0090916B0001968530E9
:1000B00091052CF490936B0080936A0004C0109219
:1000C0006B0010926A00E0916A00F0916B00EE0FF5
:1000D000FF1FE05AFF4F80818BBBFF91EF919F91F3
:1000E0008F910F900FBE0F901F9018958FE08ABBD5
:1000F0001BBA789495E081E0AA9A23B32111FCCF32
:0A01000093BF89BFF9CFF894FFCF39
:0A010A0001000400020008000100DB
:00000001FF
