:100000000C942A000C943C000C943C000C943C0092
:100010000C943C000C943C000C943C000C943C0070
:100020000C943C000C943C000C943C000C943C0060
:100030000C943C000C943C000C943C000C943C0050
:100040000C943C000C943C000C943C000C943C0040
:100050000C943C0011241FBECFE5D4E0DEBFCDBF21
:1000600020E0A0E6B0E001C01D92A037B207E1F7A2
:100070000E9449010C9400020C940000AA9A95B3C6
:100080009F7095BB95B3282F207F922B95BBAA9884
:10009000EFE9FFE03197F1F700C00000AA9A95B3AD
:1000A0009F7095BB25B3F0E18F9FC0011124822B77
:1000B00085BBAA988FE99FE00197F1F700C0000087
:1000C0000895CF93DF9380E80E943E002FEF83EDE9
:1000D00090E3215080409040E1F700C00000C4E16F
:1000E000D0E08CE10E943E002FEF81EE94E02150A1
:1000F00080409040E1F700C00000219791F782E036
:100100000E943E0080EC0E943E002FEF83ED90E3C2
:10011000215080409040E1F700C00000DF91CF9176
:100120000895CF93C82F82BB81E00E943E008C2FA0
:100130008D7F21F480E80E943E0008C08BEF8C0F79
:100140008230C0F388EF8C0F8330A0F380EC0E94E4
:100150003E00C83011F0C23071F48091640090E02C
:10016000019663E070E00E94D80180936400FC0176
:10017000EB59FF4FC08382E388BD8ABD2FEF83ED2B
:1001800090E3215080409040E1F700C00000CF9103
:100190000895A89AAA9A95B39F7095BB95B3282FF6
:1001A000207F922B95BBAA98EFE9FFE03197F1F7FA
:1001B00000C00000AA9A95B39F7095BB25B3F0E1EB
:1001C0008F9FC0011124822B85BBAA988FE99FE0E5
:1001D0000197F1F700C0000008958FEF84BB8FE511
:1001E0009AEE0197F1F700C0000083E00E943E0004
:1001F0008FE19EE40197F1F700C0000083E00E94C8
:100200003E008FE99FE00197F1F700C0000083E016
:100210000E943E008FE99FE00197F1F700C00000C7
:1002200082E00E943E008FE99FE00197F1F700C055
:10023000000088E20E943E008FE99FE00197F1F7FD
:1002400000C0000088E00E943E008FE99FE0019717
:10025000F1F700C0000081E00E943E008FE99FE0BE
:100260000197F1F700C0000086E00E943E008FE990
:100270009FE00197F1F700C000008FE00E943E0070
:100280008FE99FE00197F1F700C0000008950C94FA
:100290003E000E94ED000E9461001BBA1ABA8FEF67
:1002A00088BB87BB15BA84BB82BB81BB13BE12BEA1
:1002B0001CBE91EA9FBD9AE09EBD1DBC1CBC8BBDBF
:1002C0008ABD89BD88BD80E888B980E00E94910020
:1002D0002FEF83ED90E3215080409040E1F700C084
:1002E0000000C4E0D3E011E089B38823A9F11092A3
:1002F0006D0010926E0089B38093620083FF04C08A
:1003000010936E0010936D0082FF03C092E09093F3
:100310006E0084FF03C092E090936D0081FDD09346
:100320006E0085FDD0936D0080FDC0936E0086FD4C
:10033000C0936D0090916E0080916D00891710F44C
:1003400088E007C0981710F482E003C09813CCCF60
:100350008AE00E949100C8CF90916800891750F4FC
:10036000E82FF0E0EB59FF4F2081283009F49F5F20
:100370008F5FF4CF80936F0090936800923010F0FD
:1003800086E001C089E00E9491002FEF83ED90E3A9
:10039000215080409040E1F700C000002FEF83ED36
:1003A00090E3215080409040E1F700C000009CCFD6
:1003B00097FB072E16F4009407D077FD09D00E9412
:1003C000EC0107FC05D03EF4909581959F4F089570
:1003D000709561957F4F0895AA1BBB1B51E107C023
:1003E000AA1FBB1FA617B70710F0A61BB70B881FC5
:1003F000991F5A95A9F780959095BC01CD01089554
:04040000F894FFCF9E
:00000001FF
