:040000000C943C0020
:100004000C9400000C9400000C9400000C9400006C
:100014000C9400000C9400000C9400000C9400005C
:100024000C9400000C9400000C9400000C9400004C
:100034000C9400000C9400000C9400000C9400003C
:100044000C9400000C9400000C9400000C9400002C
:100054005A61687261204B68617661726900486513
:100064006C6C6F20576F7264210080C002006001C5
:100074006E000000F894EE27ECBBF1E0FBBFEBBF91
:10008400E5BF8DE0A2E0BB27ED938A95E9F780E018
:1000940094E0A0E6ED930197E9F7E0E7F0E08591BD
:1000A4009591009761F0A591B59105901590BF01C8
:1000B400F00105900D920197E1F7FB01F0CFEFE518
:1000C400EDBFE4E0EEBFC0E6D1E00C946900EFEFD1
:1000D400E4BBE0E0E5BBA0E174D041D0E0E0EA930A
:1000E400A0E030D0A4E5B0E059D0E0E0EA93A1E08C
:1000F40029D0A2E6B0E052D0A4EFB1E00E941801EA
:10010400ECCFFFCFAA93E5B3EF70AE2FE881E07F89
:10011400EA2BE5BB82E08A95F1F7AA9A82E08A95F8
:10012400F1F7AA9882E08A95F1F773C0AA93A8819F
:10013400E9DFE881E295E883A881E4DF81E18A953B
:10014400F1F767C0AA93E881F0E0E05AFE4FE0813E
:10015400A981AE0FEBDF5980488022960895A2E072
:100164005AD0ACE0E3DFA1E056D0E0E04E2E5E2EA4
:100174000895AA93A881AA3011F0571448F0E0E03A
:10018400EA934394A42DDEDFA881AA3009F441C088
:100194005394A89AA881CADFA8983BC0BA93AA939B
:1001A4001A93E981FA813196E983FA833197E491CC
:1001B4001E2FE03019F0A12FDCDFF3CF1881239636
:1001C4000895AA93E4B3E06FE4BBA29AA09AA19A1B
:1001D400AA98A898A9987880E881E058E0936201E9
:1001E400E881E054E0936301A4E1B0E00E941801C7
:1001F40017D016D015D0A0E285DF81E28A95F1F7F9
:10020400A8E294DFA4E092DFA5E890DFA6E08EDF09
:10021400A6DF219608958ADFA3E0B0E00C941801CC
:10022400A0E370DF81E28A95F1F70895109639F022
:100234008AEF90E00197F1F7A8951197C9F708950F
:00000001FF
