:100000000C942A000C9447000C9447000C94470071
:100010000C9447000C9447000C9447000C94470044
:100020000C9447000C9449000C9447000C94470032
:100030000C9447000C9447000C9447000C94470024
:100040000C9447000C9447000C9447000C94470014
:100050000C94470011241FBECFE5D4E0DEBFCDBF16
:1000600010E0A0E6B0E0E4E2F1E002C005900D92FD
:10007000A237B107D9F720E0A2E7B0E001C01D9296
:10008000A637B207E1F70E9483000C9490000C940D
:1000900000001F920F920FB60F9211242F933F93DF
:1000A0008F939F9380917400909175000196909327
:1000B00075008093740020917200309173008091DC
:1000C00074009091750021153105A1F08B309105D8
:1000D000D4F31092750010927400809160008BBB75
:1000E00080917200909173000196909373008093B9
:1000F0007200E1CF9F918F913F912F910F900FBE92
:100100000F901F9018958FE08ABB1BBA789495E0EA
:1001100081E0AA9A23B32111FCCF93BF89BFF9CF05
:04012000F894FFCF81
:1001240001000400020008000100080002000400AD
:020134000100C8
:00000001FF
