:100000000C942A000C9447000C9447000C94470071
:100010000C9447000C9447000C9447000C94470044
:100020000C9447000C9449000C9447000C94470032
:100030000C9447000C9447000C9447000C94470024
:100040000C9447000C9447000C9447000C94470014
:100050000C94470011241FBECFE5D4E0DEBFCDBF16
:1000600010E0A0E6B0E0ECE1F1E002C005900D92F6
:10007000A237B107D9F720E0A2E7B0E001C01D9296
:10008000A637B207E1F70E947F000C948C000C9415
:1000900000001F920F920FB60F9211248F939F931F
:1000A000EF93FF93809174009091750001968B30CF
:1000B00091052CF4909375008093740004C0109205
:1000C000750010927400E0917400F0917500EE0FCD
:1000D000FF1FE05AFF4F80818BBB8091720090918F
:1000E000730001969093730080937200FF91EF91DB
:1000F0009F918F910F900FBE0F901F9018958FE0DA
:100100008ABB1BBA789495E081E0AA9A23B32111A7
:0C011000FCCF93BF89BFF9CFF894FFCF5C
:10011C0001000400020008000100080002000400B5
:02012C000100D0
:00000001FF
