:100000000C942A000C9447000C9447000C94470071
:100010000C9447000C9447000C9447000C94470044
:100020000C9447000C9447000C9447000C94470034
:100030000C9447000C9447000C9447000C94470024
:100040000C9447000C9447000C9447000C94470014
:100050000C94470011241FBECFE5D4E0DEBFCDBF16
:1000600010E0A0E6B0E0E0EFF0E002C005900D92F5
:10007000A437B107D9F720E0A4E7B0E001C01D9292
:10008000A637B207E1F70E9449000C9476000C9461
:1000900000008FEF81BB89B3813029F51092750084
:1000A0001092740080917400909175008A309105CF
:1000B000D4F4880F991FFC01E05AFF4F808182BB66
:1000C0002FEF80E792E0215080409040E1F700C0A0
:1000D00000008091740090917500019690937500D6
:1000E00080937400DFCF80E090E00895F894FFCF14
:1000F0003F0006005B004F0066006D00FD0007003A
:040100007F006F000D
:00000001FF
