:100000000C942A000C9434000C9434000C943400AA
:100010000C9434000C9434000C9434000C94340090
:100020000C9434000C9434000C9434000C94340080
:100030000C9434000C9434000C9434000C94340070
:100040000C9434000C9434000C9434000C94340060
:100050000C94340011241FBECFE5D4E0DEBFCDBF29
:100060000E9436000C9462000C9400008FE08ABB62
:1000700081E08BBBEFE1FEE43197F1F700C00000B7
:1000800098E09BBBEFE1FEE43197F1F700C0000080
:1000900092E09BBBEFE1FEE43197F1F700C0000076
:1000A00094E09BBBEFE1FEE43197F1F700C0000064
:1000B0008BBB8FE19EE40197F1F700C0000080E068
:0800C00090E00895F894FFCFD1
:00000001FF
